:020000040800F2
:10000000500F0020490100080714000803140008DD
:100010000514000821070008211500080000000051
:100020000000000000000000000000005B0100086C
:1000300011080008000000005F0100080914000812
:100040006301000863010008630100086301000800
:10005000630100086301000815080008D9080008BA
:1000600005090008310900085D0900082507000896
:10007000390700084D0700086107000875070008E8
:10008000890700089D070008630100086301000854
:100090006301000863010008630100088909000882
:1000A00063010008630100086301000863010008A0
:1000B0006301000863010008630100086301000890
:1000C0006301000863010008630100086301000880
:1000D00063010008F114000809150008151500084F
:1000E000410800086301000863010008630100087B
:1000F0006301000863010008630100086301000850
:10010000630100086301000863010008630100083F
:10011000D9140008E5140008630100086301000811
:10012000B1070008C9070008E1070008F90700083F
:10013000DFF810D000F0E2FA00F032F80048004793
:100140009D450008500F002006488047064800479C
:10015000FEE7FEE7FEE7FEE7FEE7FEE7FEE7FEE777
:10016000FEE7FEE79114000831010008D2B201E079
:1001700000F8012B491EFBD270470022F6E710B5AC
:1001800013460A4604461946FFF7F0FF204610BD05
:10019000421C10F8011B0029FBD1801A7047000097
:1001A00070B5054C054D03E0206820448047241DB0
:1001B000AC42F9D170BD0000185A0008245A00085A
:1001C0002DE9FE4F804681EA0300C00F0C460090E7
:1001D00021F0004123F00045B8EB0200A94105D20F
:1001E0004046214690461C460B46024623F00040FE
:1001F000104347D0270DC7F30A00C3F30A510290FA
:10020000401A019040286BDAC3F3130040F4801BBE
:100210000098924620B10023D2EB030A63EB0B0B4C
:1002200001985946C0F14002504600F0D7F9064601
:100230000D4650465946019A00F0EFF910EB0800C0
:100240006141002487EA115284EAE7731A4340D0DF
:10025000009A62B3019A012A4FEA075215DC001B8B
:1002600061EB02014FF0004202EA0752CDE9004281
:10027000001C41F5801132462B4600F0F0F903B026
:10028000BDE8F08F40462146F9E7001B61EB020113
:10029000001C41F5801300185B412018A2F50017DF
:1002A00047EB030140EAD570B6196D4111E06D08C6
:1002B0004FEA360645EAC0754FEA0752001B61EB6C
:1002C0000201001C41F5801149084FEA3000001975
:1002D000514132462B4603B0BDE8F04F00F0B0B9B3
:1002E0000098012240000023D0EB020263EBE07390
:1002F000009821464FEAE074B8EB000061EB04017E
:10030000E9E783F000435BE781F0004158E72DE91E
:10031000FE4F81EA030404F0004421F00041009400
:100320004FF0000B23F0004350EA01045ED052EA84
:1003300003045BD0C3F30A54C1F30A552C44A4F25E
:10034000F3340194A0FB0254C1F3130141F4801172
:10035000C3F3130343F4801301FB024400FB034E79
:10036000840A970A44EA815447EA8357A4FB076842
:1003700002958D0A05FB07854FEA932C04FB0C546C
:100380002705029D4FEA065847EA1637B5EB0805E0
:100390006EEB070C870E920E47EA811742EA831232
:1003A000A7FB0201B6EB0B0164EB00042B0D43EA43
:1003B0000C335E1844EB1C50DA465146E7FB020151
:1003C000C5F313044FEA0B3343EA14534FEA0432E4
:1003D000019C43EA0603A4F10C040294009CCDE9BD
:1003E00000B400F03CF903B0BDE8F08F00200146F6
:1003F000F9E72DE9F04D81EA030404F0004B21F008
:10040000004514464FF0000A23F0004150EA05026F
:1004100020D054EA01021DD0C5F30A570246C5F3A5
:100420001303C1F31300C1F30A5640F4801543F4DB
:100430008013A7EB0608101BD64608F2FD3873EBB5
:10044000050002D308F1010801E092185B41B8F100
:10045000000F03DA00200146BDE8F08D00204FF4C4
:100460008011064684460EE0171B73EB050705D383
:10047000121B63EB050306434CEA010C49084FEAE3
:10048000300092185B4150EA0107EDD152EA0300B7
:1004900012D082EA040083EA0501084305D0101B4C
:1004A000AB4106D20122002306E000224FF00043B8
:1004B00002E06FF0010253101AEB06004CEB0851FA
:1004C00010EB0A0041EB0B01BDE8F04D00F0B8B8AD
:1004D0000EB5C10F80EAE0700844CA07002140F25F
:1004E00033438DE80E000A460B4600F0B8F803B01F
:1004F00000BD0EB540F2334102910021CDE900115B
:100500000A460B4600F0ABF803B000BD70B5C1F36E
:100510000A5201F000450024C1F3130140F2FF33F9
:1005200041F480119A4201DA002070BD40F2334359
:100530009A42A2F2334203DC524200F05EF800E03D
:1005400090402C43F1D0404270BDC1F30A5210B527
:10055000C1F3130140F2FF3341F480119A4201DAF2
:10056000002010BD40F233439A42A2F2334203DC32
:10057000524200F042F810BD904010BD30B5041E4C
:1005800071F1000404DB4FF00044404264EB0101D0
:10059000141E73F1000405DB1C464FF00043524269
:1005A00063EB04038B4208BF824230BD30B5041EAA
:1005B00071F1000404DB4FF00044404264EB0101A0
:1005C000141E73F1000405DB1C464FF00043524239
:1005D00063EB0403994208BF904230BD202A04DB3C
:1005E000203A00FA02F1002070479140C2F1200346
:1005F00020FA03F3194390407047202A04DB203A85
:1006000021FA02F00021704721FA02F3D040C2F132
:1006100020029140084319467047202A06DBCB1779
:10062000203A41FA02F043EAE07306E041FA02F3AD
:10063000D040C2F1200291400843194670477047EC
:1006400010B5141E73F1000408DA401C41F10001DA
:1006500092185B411A4301D120F0010010BD2DE931
:10066000F04D92469B4611B1B1FA81F202E0B0FA28
:1006700080F220329046FFF7B1FF04460F4640EA71
:100680000A0041EA0B0153465A46084313D011466B
:1006900053EA010019D0C8F140025046FFF7ADFF00
:1006A00005460E46504659464246FFF797FF084317
:1006B00005D0012004E020463946BDE8F08D002039
:1006C000054346EAE0762C4337430A986305E40A7B
:1006D000A0EB08000022FD0A44EA47540A3002D584
:1006E00000200146E9E7010510196941DDE90845E7
:1006F00000196941BDE8F04DA2E70000064C074D26
:1007000006E0E06840F0010394E8070098471034E1
:10071000AC42F6D3FFF710FDF8590008185A00084C
:10072000FEE7000003480168890701D50221416006
:10073000704700000000024003480168890601D5A7
:10074000202141607047000000000240034801681A
:10075000890501D541154160704700000000024045
:1007600003480168890402D54FF400514160704785
:100770000000024003480168890302D54FF40031AC
:10078000416070470000024003480168890201D5BA
:100790000101416070470000000002400348016809
:1007A000890101D50102416070470000000002404C
:1007B00004480068800703D502490220091D08602B
:1007C000704700000004024004480068800603D51A
:1007D00002492020091D0860704700000004024003
:1007E00004480068800504D502494FF40070091DD3
:1007F000086070470004024004480068800404D583
:1008000002494FF40050091D08607047000402407F
:10081000FEE70000084810B50168C9070BD00121A8
:100820000160084600F0F0F804480068002802D093
:10083000BDE81040004710BD140401408C080020A2
:1008400070B5234D2868234C400506D5281528602F
:1008500000F0DAF8A06A00B180472868000507D5E3
:100860004FF40060286000F0CFF8E06A00B18047E4
:100870002868C00407D54FF48050286000F0C4F801
:10088000206B00B180472868800407D54FF40050E2
:10089000286000F0B9F8606B00B180472868400418
:1008A00007D54FF48040286000F0AEF8A06B00B18F
:1008B0008047286800040AD54FF40040286000F003
:1008C000A3F8E06B002802D0BDE87040004770BD7F
:1008D000140401408C080020084810B501688907FD
:1008E0000BD502210160084600F08EF804484068EC
:1008F000002802D0BDE81040004710BD140401409C
:100900008C080020084810B5016849070BD5042160
:100910000160084600F078F804488068002802D09A
:10092000BDE81040004710BD140401408C080020B1
:10093000084810B5016809070BD508210160084671
:1009400000F062F80448C068002802D0BDE81040FA
:10095000004710BD140401408C080020084810B561
:100960000168C9060BD510210160084600F04CF85B
:1009700004480069002802D0BDE81040004710BDBF
:10098000140401408C08002070B51D4D28681D4CD2
:10099000800606D52020286000F036F8606900B196
:1009A00080472868400606D54020286000F02CF8D3
:1009B000A06900B180472868000606D5802028601D
:1009C00000F022F8E06900B180472868C00507D52B
:1009D0004FF48070286000F017F8206A00B180475B
:1009E000286880050AD54FF40070286000F00CF8E4
:1009F000606A002802D0BDE87040004770BD00006A
:100A0000140401408C080020704700002DE9F84FC5
:100A1000DFF8C891002409F1040A0AF1040B234607
:100A20000F270BF1040ED1E00125A54006EA0502CF
:100A3000AA4276D1DFF8A8C14E68A6EB0C0866453D
:100A40002BD00DDC032E34D005DC36B3012E19D0AB
:100A5000022E2FD11BE0112E16D0122E2AD119E012
:100A6000B8F5881F19D006DCB8F5803F15D0B8F569
:100A7000801F1FD111E0B8F5001F0ED0B8F5041F7C
:100A800018D10AE0CB6815E0CB681B1D12E0CB68DB
:100A900008330FE0CB680C330CE08B682BB1012BD3
:100AA0004FF0080303D0456104E0042302E0056130
:100AB00000E00023FF2A01D8064601E000F1040609
:100AC0004FEA840501D9A5F12005D6F8008007FA80
:100AD00005FC28EA0C0803FA05F548EA0508C6F8FB
:100AE00000804D68ED0070D53E4DAE6946F00106C0
:100AF000AE61AD6924F0030605F0010500953A4D9D
:100B000006EB050CDCF80850A607360F07FA06F8C6
:100B100025EA0805DFF8D480404503D14FF00008EE
:100B200025E052E0DFF8C880404502D14FF00108CF
:100B30001DE0DFF8C080404502D14FF0020816E00A
:100B4000DFF8B480404502D14FF003080FE0DFF832
:100B5000AC80404502D14FF0040808E0DFF8A080E7
:100B6000404502D14FF0050801E04FF0060808FAB1
:100B700006F848EA0508CCF808804D68D9F8006006
:100B8000ED034D4601D5164300E096432E604D68B7
:100B9000DAF80060AD03554601D5164300E09643F0
:100BA0002E604D68DBF80060ED025D4601D516430E
:100BB00000E096432E604D68DEF80060AD02754699
:100BC00001D5164300E096432E60641C0A68164661
:100BD000E2407FF429AFBDE8F88F00000004014037
:100BE0000000111000100240000001400008014008
:100BF000000C0140001001400014014000180140A9
:100C0000001C014001488068704700002C00002053
:100C10000248816802781144816070472C000020EE
:100C2000074810B5016841F010010160032000F091
:100C300099F8002000F006F800F024F8002010BD1C
:100C40000020024070B50D4D04464FF47A712878AB
:100C5000B1FBF0F00A490968B1FBF0F000F087FB46
:100C600048B9102C07D200222146501E00F05AF835
:100C700000206C6070BD012070BD00002C000020C1
:100C800028000020154808B5816941F00101816103
:100C9000806900F001000090032000F063F800225A
:100CA00011466FF00B0000F03DF8002211466FF086
:100CB0000A0000F037F8002211466FF0090000F03A
:100CC00031F800221146101F00F02CF80022BDE878
:100CD00008401146501E00F025B8000000100240E8
:100CE00000F01F02012191404009800000F1E02046
:100CF000C0F88012704700F01F02012191404009A6
:100D0000800000F1E020C0F88011704700F01F0261
:100D1000012191404009800000F1E020C0F800115D
:100D200070470000F0B40E4B1B680C46C3F302235F
:100D3000C3F10705042D00D90425191D072901D287
:100D4000002300E0DB1E012606FA05F1491E2140C2
:100D500099409E40761E16403143F0BC00F076BFAD
:100D60000CED00E0064900F0070208684FF6FF03AB
:100D7000184040EA0220034A104308607047000010
:100D80000CED00E00000FA052DE9F8430546007877
:100D9000354CC00754D0E0690026C00008D4E06993
:100DA00040F08050E061E069012600F08050009042
:100DB0002E480168C90512D40168804641F480714B
:100DC0000160FFF71FFF074605E000BFFFF71AFFAE
:100DD000C01B642823D8D8F80000C005F6D5206AC7
:100DE00010F4407021D0A98801F4407181421CD0D8
:100DF000206A1F49012220F440700A6000220A6024
:100E00002062C00711D0FFF7FDFE074641F2883887
:100E100008E000BFFFF7F6FEC11B414502D90320E1
:100E2000BDE8F883206A8007F4D5206A696820F459
:100E30004070084320621EB1E06920F08050E061FC
:100E40002878800705D56068A96820F440400843E9
:100E500060602878C00605D56068696920F4800064
:100E6000084360600020DBE7001002400070004093
:100E7000400442422DE9F0470F46050061D0434E41
:100E8000306800F00700B84209D2306820F007004F
:100E900038433060306800F00700B84251D128680C
:100EA0003B4C810712D5400703D5606840F4E060F1
:100EB00060602878000703D5606840F46050606087
:100EC0006068A96820F0F000084360602878C007D7
:100ED00028D06868012810D02168022810D089071E
:100EE00000292EDA616821F0030101436160FFF7F8
:100EF00089FE804641F288390DE021688903EFE7D9
:100F00008901EDE7FFF77EFEA0EB0801494502D914
:100F10000320BDE8F0876068696800F00C00B0EB62
:100F2000810FEFD1306800F00700B8420BD930686C
:100F300020F0070038433060306800F00700B84206
:100F400001D00120E5E72878400705D56068E96809
:100F500020F4E060084360602878000706D56068E8
:100F6000296920F4605040EAC100606000F038F860
:100F70006168084AC1F30311515CC8400649086022
:100F800006480068FFF75EFE0020C2E7002002402E
:100F900000100240475900082800002030000020BF
:100FA0000448054900684968044AC1F30221515CBC
:100FB000C840704728000020001002405759000820
:100FC0000448054900684968044AC1F3C221515CDC
:100FD000C840704728000020001002405759000800
:100FE00012A185B00FC98DE80F0014A0144A006843
:100FF00004905168134811F00C0312D0042B10D048
:10100000082B0ED1C1F38343C9031DF803000AD591
:10101000516804AAC1F34041515C0A4A5043B0FBF5
:10102000F1F005B0704708494843FAE702030405A8
:10103000060708090A0B0C0D0E0F10100102000024
:101040000010024000127A0000093D002DE9F84F1F
:10105000040070D02078C04DC00749D06868C0F344
:101060008100012807D06868C0F38100022809D1F7
:101070006868C00306D52868800339D560680028F1
:10108000E7D035E06068B0F5803F0BD010B1B0F527
:10109000A02F11D0286820F480302860286820F420
:1010A000802002E0286840F480302860606890B1B9
:1010B000FFF7A8FD06460AE0286840F48020286073
:1010C000F0E700BFFFF79EFD801B642873D82868F7
:1010D0008003F7D50CE0FFF795FD064605E000BF5D
:1010E000FFF790FD801B6428F0D828688003F7D4B0
:1010F00020789A4E80074FF001094FF0000839D54B
:10110000686810F00C0F07D06868C0F381000228EF
:1011100009D16868C00306D42868800714D52069FF
:10112000012808D110E02069B0B1C6F80090FFF79F
:1011300069FD074605E00AE1FFF764FDC01B0228D0
:10114000C4D828688007F7D52868616920F0F800BE
:1011500040EAC10028600DE0C6F80080FFF752FDAC
:10116000074604E0FFF74EFDC01B022823D828687D
:101170008007F7D4207800072CD57948A169D9B128
:10118000C0F80090FFF73EFD074604E0FFF73AFD88
:10119000C01B02280FD8686A8007F7D571484FF442
:1011A000FA510068B0FBF1F0009000BF0098411EBA
:1011B0000091FAD20EE080E0C0F80080FFF722FD37
:1011C000074604E0FFF71EFDC01B022875D8686AB9
:1011D0008007F7D42078400760D5E8690027C00071
:1011E00008D4E86940F08050E861E869012700F020
:1011F000805000905C480168C90513D4016883469B
:1012000041F480710160FFF7FDFC824606E000BFFB
:10121000FFF7F8FCA0EB0A0064284ED8DBF80000CA
:10122000C005F5D5E06801280AD008B1052813D01B
:10123000286A20F001002862286A20F0040002E0F9
:10124000286A40F001002862E06841F2883B98B1CA
:10125000FFF7D8FC82460BE0286A40F004002862C1
:10126000EEE700BFFFF7CEFCA0EB0A0159455AD8C4
:10127000286A8007F6D50CE0FFF7C4FC824605E03B
:10128000FFF7C0FCA0EB0A0159454CD8286A80073B
:10129000F6D41FB1E86920F08050E861E06988B3B6
:1012A0006968C1F38101022944D00228C6F8608030
:1012B00004D0FFF7A7FC044638E034E0FFF7A2FCB7
:1012C000074604E0FFF79EFCC01B02282BD82868C5
:1012D0008001F7D4206AB0F5803F05D16868A16825
:1012E00020F4003008436860D4E9080108436968C5
:1012F00021F4741108436860C6F86090FFF782FC1F
:10130000044606E025E000BFFFF77CFC001B022836
:1013100009D828688001F7D51BE000BFFFF772FCF1
:10132000001B022802D90320BDE8F88F286880013D
:10133000F4D40EE00128F7D06868226A00F4803106
:10134000914204D1616A00F47010884201D00120FA
:10135000EAE70020E8E700000010024000004242F7
:10136000800442422800002000700040704710B501
:10137000401EB0F1807F01D3012010BD4FF0E0246A
:1013800060610F21601700F061FC0020A061072060
:101390002061002010BD10B5FFF7E8FF10BD70B54B
:1013A000040004D094F83900002510B106E00120B3
:1013B00070BD84F83850204600F022F8242084F8CC
:1013C00039002068C16821F40051C160204600F056
:1013D000BFFA2068016921F49041016120684169E8
:1013E00021F02A0141612068C16841F40051C160C7
:1013F000E563202084F8390084F83A00002070BDAD
:101400007047FEE7FEE7704710B5FFF701FCBDE847
:101410001040FFF7C0BF30B595B028216846FEF7F1
:10142000ACFE14210AA8FEF7A8FE18210FA8FEF7AB
:10143000A4FE01210804CDE9001000240294022535
:101440000491CDE907504FF4E01009906846FFF78A
:10145000FDFD00B1FEE70F20CDE90A054FF48060E5
:10146000CDE90C4002210AA80E94FFF703FD00B15C
:10147000FEE712200F904FF40040119014940FA833
:10148000FFF782FC002800D0FEE715B030BD000059
:101490000D48016841F00101016041680B4A1140AB
:1014A000416001680A4A11400160016821F480210D
:1014B0000160416821F4FE0141604FF41F01816029
:1014C0000449C00308607047001002400000FFF8A4
:1014D000FFFFF6FE08ED00E0014801F06AB90000E8
:1014E00098060020014801F064B9000008070020B8
:1014F00010B5044801F05DF90248BDE810407038AD
:1015000001F057B948050020014801F052B9000028
:10151000B8050020014801F04CB900002806002061
:10152000FEE70000134808B5816941F480518161EC
:10153000816901F480510091C16841F48051C1601A
:10154000C16821F48051C160816941F0010181616C
:101550008069052100F001000090072003F0C4F825
:101560000521082003F0C0F80521BDE80840062049
:1015700003F0BAB800100240134808B5C16941F43D
:101580008041C161C16901F480410091016941F468
:1015900080410161016921F480410161816941F06B
:1015A000010181618069052100F0010000901F2088
:1015B00003F09AF80521202003F096F80521BDE8F4
:1015C00008401E2003F090B8001002400F4808B5F4
:1015D000C16941F40041C161C16901F40041009158
:1015E000016941F400410161016921F40041016197
:1015F0000521002003F078F80521002003F074F89D
:101600000521BDE80840002003F06EB8001002403C
:101610002DE9F04788460446DFF86C902EE000BFC5
:1016200014F8010B14F8015BFF280BD06EB22746AB
:1016300000F05CF815484FF0040C02220368D9F85A
:1016400000000EE0284602F085FF002511E000BFF3
:1016500017F8011BC0F810C001F57F011961426144
:101660000261311EA6F1010676B2F1DC08210161AA
:101670002C44A8EB0500801E0FFA80F8B8F1000F8B
:10168000CEDCBDE8F0870000140000201800002028
:101690002DE9F34F06464FEA400881B0124801F0A9
:1016A00024FD00EB0609104801F055FD871902F0F2
:1016B000F7FF834600250FE000240FFA85FA08E0C3
:1016C00002980090334622B25146074801F082F951
:1016D0004444BC42F4DB45444D45EDDB02F0E0FF01
:1016E000A0EB0B00BDE8FE8F9C0200200A4A10B55B
:1016F00011680C234B614FF47F0303EB10245368F4
:101700001C6102224A610A61C0B200F57F001861C3
:101710004A610A6110BD00001400002070B50F4935
:1017200000240820096848610D4D2A5D641CE0B260
:10173000295C401CC4B2FF2A0BD0104600F0D6F939
:10174000562CF2D3002000F01BFBBDE8704000F0E7
:1017500009B8084602F0FEFEF2E70000140000207F
:10176000C757000810B5EF220521042000F0DEFA6B
:101770000921BDE8104040F23F12082000F0D6BA1F
:101780002DE9F04700241C4EDFF870800225DFF8B9
:101790007090082716F804C0641CE1B2705C491C04
:1017A000CCB2BCF1FF0F0FD0D9F800104F61042369
:1017B0004B61D8F800200CF57F0CC2F810C04D61C9
:1017C0000D610B6100230FE002F0C4FE0FE000BFCB
:1017D00016F804C0641C0CF57F0CE4B2C2F810C00B
:1017E0004D610D615B1CDBB28342F1D30F61462C6E
:1017F000D0D3BDE8F08700001D5800081800002075
:101800001400002070B50E4D002400BF15F8142000
:10181000641CE0B215F81010401CC4B2FF2A0BD0B3
:10182000104600F0CDF9662CF0D306490020087070
:10183000BDE8704000F0BABA084602F08BFEF2E74D
:10184000645800081C00002010B509210448FFF767
:10185000DFFE03480E21BDE810400930FFF7D8BE77
:10186000305900082DE9F84380468946164801F0B2
:101870003CFC0546144801F06EFC04460021124869
:1018800001F094FD02F00CFF0746002608E02B460D
:1018900032B200210C48CDF8008001F00BFE761D1D
:1018A000A642F4DB002608E02346002231B20648B7
:1018B000CDF8009001F03BFE761DAE42F4DB02F065
:1018C000EFFEC01BBDE8F8839C0200202DE9FF411C
:1018D0001E4801F00AFC00EBD0704FF0FF3404EB1F
:1018E00060051A4801F037FC00EBD07004EB60068D
:1018F0000021164801F05AFDB54201DA2F4600E0FA
:10190000374602F0CDFE8046002416E00022E3B206
:1019100011460E4801F08CFF311909B2CDE90210D1
:101920002A1912B2CDE90012281B03B2301B02B2F1
:1019300029B2064801F023F9641DBC42E6DB02F03F
:10194000AFFE04B0A0EB0800BDE8F0819C020020CF
:101950002DE9F041044600680169E26821F4405134
:10196000114301612169A068084361690843216846
:10197000CA6841F20C639A430243CA602068416915
:10198000A26921F44071114341611E492068642518
:101990003226884202D1FFF713FB01E0FFF700FB7C
:1019A00000EBC00101EB001160686FF018078000C8
:1019B000B1FBF0F2B2FBF5F2B1FBF0F37A4303EBCB
:1019C0008202B1FBF0F306EB0212B2FBF5F2B3FBBD
:1019D000F5F302F0F00202EB0312B1FBF0F3B1FBFE
:1019E000F0F0B0FBF5F0784303EB800006EB00105D
:1019F000B0FBF5F0216800F00F0010448860BDE8EE
:101A0000F08100000038014010B502F049FE0446A4
:101A100000210C4801F0CAFC4FF47841094801F05C
:101A2000C5FC4FF4FC61074801F0C0FC1F210548CC
:101A300001F0BCFC0021034801F0B8FC02F030FECC
:101A4000001B10BD9C0200202DE9FE43264801F03A
:101A50004CFB00EBD0704FF0FF3404EB60092248E0
:101A600001F079FB00EBD07004EB600800211E4808
:101A700001F09CFC1C4801F038FB04461A4801F0B8
:101A80006AFB8442184802DA01F02FFB01E001F002
:101A900062FB054602F004FE074600241CE000BF7E
:101AA00004EBD47046100023E1B21A460E4801F050
:101AB000BFFEE11704EB517123B241F3CF01009354
:101AC000CDE90110A8EB060002B2A9EB060001B2B5
:101AD000054801F052F9A41DAC42E1DB02F0E0FD43
:101AE000C01BBDE8FE8300009C02002010B50C4620
:101AF000FFF7FCFD0649042208680261496804F505
:101B00007F040C610221416101610821016110BD66
:101B1000140000202DE9F34F83B00027274801F07F
:101B2000E4FA00EBD0707C1E04EB6009234801F05E
:101B300012FB00EBD07004EB600A00211F4801F09B
:101B400035FC1E4801F0D1FA04461C4801F003FBA5
:101B500084421A4802DA01F0C8FA01E001F0FBFA07
:101B6000044624E004EBD470461002F099FD83464D
:101B700025B203982B46CDE90050AAEB060002B22D
:101B8000A9EB060001B290460E460C4801F05AFE41
:101B900002F086FDA0EB0B00074404984246CDE915
:101BA000005031462B46054801F09EFBA41F002C37
:101BB000D8DC05B03846BDE8F08F00009C0200205C
:101BC00010B50C46FFF792FD0A490422086802612D
:101BD00049684FF47F0202EB14220A61022242613B
:101BE0000261E3B203F57F030B61426102610821E8
:101BF000016110BD1400002010B50C46FFF776FD02
:101C0000114904220868026149684FF47F0202EB1F
:101C100014620A61022242610261C4F3074303F5C0
:101C20007F030B6142610261C4F3072303F57F0365
:101C30000B6142610261E3B203F57F030B61426114
:101C400002610821016110BD140000200907090E7E
:101C5000002806DA00F00F0000F1E02080F8141DE3
:101C6000704700F1E02080F80014704770B50C4612
:101C7000154915460978012904D0022908D00329FD
:101C800013D10CE00146C4F1EF0000B20C460CE0A9
:101C9000C0F1EF00A4F23F1400B2614204E001463B
:101CA000A1F23F11204649420CB281B22020FFF739
:101CB00087FFA1B22120FFF783FF2946BDE87040CE
:101CC0002220FFF77DBF00001C0000202DE9F34F0C
:101CD000044681B0144801F008FA8346124801F026
:101CE0003AFA8046670000210F4801F05FFB02F0DE
:101CF000D7FC824626460FE025460FFA86F908E013
:101D00000298009023462AB24946074800F000FF97
:101D10003D444545F4DB3E445E45EDDB02F0C0FC4E
:101D2000A0EB0A00BDE8FE8F9C02002070B50D46B6
:101D30001446110AFFF7DAFEE1B22846BDE870400A
:101D4000FFF7D4BE0D4810B50078012808D040F246
:101D50003F14022807D003284FF0000101D103E00F
:101D6000EF21002400E0EF212020FFF729FF21468A
:101D7000BDE810402120FFF723BF00001C00002019
:101D800010B5012805D0022805D0032805D0002170
:101D900004E0602102E0C02100E0A0211620FFF74E
:101DA000A5FEBDE81040FFF7DDBC000010B500F057
:101DB0000301134CF0224FF4A0702170012906D0CA
:101DC000022907D003290AD041F2300104E041F290
:101DD000280106E04FF48051C4E9012003E041F2FC
:101DE0001801C4E901020320FFF7EAFED4E9012348
:101DF0000021521EBDE8104008465B1E00F0C8B826
:101E00001C0000202DE9F04F87B04FF000082B4850
:101E100001F06BF900EBD0704FF0FF3404EB60067B
:101E2000264801F098F900EBD07004EB6007002120
:101E3000224801F0BBFA02F033FCBE4201DA34461C
:101E400035E03C4633E000BF02F02AFC0590E3B2E7
:101E5000E2B20021194801F0EBFC39190DB2CDE9CD
:101E600002503119301B0FFA81FB03B2381BCDE948
:101E7000005B02B231B29A4691461048049100F0DC
:101E8000A4FE02F00DFC0599E2B2411A8844E1B2C9
:101E900000230A4801F0CCFCCDE90250CDE9005BFB
:101EA00053464A460548049900F069FE641F0A2C0F
:101EB000CADC07B04046BDE8F08F00009C0200205D
:101EC0002DE9FE43244801F010F900EBD0704FF0EB
:101ED000FF3404EB6007204801F03DF900EBD070BF
:101EE00004EB600600211C4801F060FA02F0D8FB08
:101EF0008046194801F0F9F80446174801F02BF91B
:101F00008442154802DA01F0F0F801E001F023F90B
:101F1000044619E004EBD47045100023E2B21946E0
:101F20000D4801F085FCE11704EB517123B241F338
:101F3000CF010093CDE90110701B02B2781B01B2F2
:101F4000054800F08CFFA41F142CE3DC02F0A8FB72
:101F5000A0EB0800BDE8FE839C02002070B515468A
:101F60000E4682B21C4603210220FFF7DFFEB2B20A
:101F700007210620FFF7DAFEAAB205210420FFF7A9
:101F8000D5FEA2B2BDE8704009210820FFF7CEBE01
:101F90002DE9F0410C4625491D46164609780129D0
:101FA00005D002290DD0032919D0804607E021462B
:101FB0000446C1F1EF06C3F1EF001546B0462746CF
:101FC00018E00146C1F1EF062146A3F23F156C422D
:101FD000A1F23F11C2F1EF004D42B04609E00146C7
:101FE0002046A2F23F167442A1F23F111E464D4216
:101FF00080462F4681B25020FFF7E2FDB1B251205A
:10200000FFF7DEFDA1B25220FFF7DAFDA9B253209F
:10201000FFF7D6FD1FFA88F12020FFF7D1FDB9B2F6
:10202000BDE8F0412120FFF7CBBD00001C000020DF
:1020300070B50D4642EA00411C462A20FFF7DCFD40
:1020400044EA0541BDE870402B20FFF7D5BD0000F4
:102050000A4A82B0106002684268009202684268D0
:102060000092026842680092026842680092026828
:1020700040680090084602B0FEF732BE0C0900200E
:1020800070B560A16B4801F0C1FD6BA1694801F01A
:102090005AFDFFF7B9FC01460A22664801F0EBFD44
:1020A0004FF4FA74204602F055FA6AA1614801F033
:1020B0004AFD00F079F901460A225E4801F0DBFD95
:1020C000204602F047FA6AA15A4801F03CFD40F26E
:1020D000FF7000F04DFA01460A22564801F0CBFD90
:1020E000204602F037FA69A1524801F02CFD1F2169
:1020F000C802FFF7B7FB01460A224E4801F0BBFDBC
:10210000204602F027FA68A14A4801F01CFD4FF46E
:10211000FC6000F0F7FA01460A22464801F0ABFDE8
:10212000204602F017FA67A1424801F00CFD4FF675
:102130001F0529464FF6E070FFF7ECFC01460A2226
:102140003C4801F098FD204602F004FA64A13948A9
:1021500001F0F9FC29460A20FFF7B8FD01460A22E2
:10216000344801F088FD65A1324801F0ECFC4FF6DF
:10217000FF710A20FFF78CFA01460A222D4801F070
:102180007AFD204602F0E6F963A12A4801F0DBFC63
:10219000FFF79CFB01460A22264801F06CFD204611
:1021A00002F0D8F963A1234801F0CDFCFFF72AFE25
:1021B00001460A221F4801F05EFD204602F0CAF9DE
:1021C00063A11C4801F0BFFCFFF73EFC01460A2258
:1021D000184801F050FD204602F0BCF963A11548F3
:1021E00001F0B1FCFFF76CFE01460A22114801F034
:1021F00042FD204602F0AEF9BDE8704062A10D48F4
:1022000001F004BD0A42656E63686D61726B202047
:102210002020202020202020202020202020546941
:102220006D6520286D6963726F7365636F6E64738B
:1022300029000000D804002053637265656E206693
:10224000696C6C20202020202020202020202020AD
:1022500020000000546578742020202020202020B9
:1022600020202020202020202020202020000000CE
:102270004C696E6573202020202020202020202003
:10228000202020202020202020000000486F72699C
:102290007A2F56657274204C696E65732020202059
:1022A000202020202000000052656374616E676C5E
:1022B000657320286F75746C696E65292020202055
:1022C0002000000052656374616E676C657320289E
:1022D00066696C6C656429202020202020000000A5
:1022E000436972636C6573202866696C6C65642948
:1022F000202020202020202020000000436972633D
:102300006C657320286F75746C696E6529202020B8
:102310002020202020000000547269616E676C65E7
:102320007320286F75746C696E6529202020202029
:1023300020000000547269616E676C657320286626
:10234000696C6C656429202020202020200000007A
:10235000526F756E64656420726563747320286FB4
:1023600075746C696E65292020000000526F756ECF
:10237000646564207265637473202866696C6C659B
:102380006429202020000000446F6E6521000000B9
:10239000FF21014801F0FBBED4070020014601489F
:1023A00001F0F5BED407002038B50021384800F010
:1023B000FDFF02F075F9044600221146344800F092
:1023C000DAFF4FF6FF71324800F0BDFC01213048C2
:1023D00000F0D1FB2FA12E4801F022FC4FF6E07156
:1023E0002B4800F0B0FC0221294800F0C4FB022079
:1023F00000902C4A2C4B264801F01CFC4FF47841ED
:10240000234800F0A0FC0321214800F0B4FB102277
:1024100026491F4801F025FC1D4801F036FC4FF409
:10242000FC611B4800F08FFC0521194800F0A3FB5C
:102430001FA1174801F0F4FB0221154800F09BFB97
:102440001DA1134801F0ECFB0121114800F093FBA2
:102450001DA10F4801F0E4FB22A10D4801F0E0FBB3
:1024600027A10B4801F0DCFB2CA1094801F0D8FBA7
:102470002FA1074801F0D4FB32A1054801F0D0FBA1
:1024800037A1034801F0CCFB02F00AF9001B38BD6C
:102490009C02002048656C6C6F20576F726C642141
:1024A000000000000AD7A3703D4A9340EFBEADDEA6
:1024B00047726F6F700000004920696D706C6F7219
:1024C0006520746865652C006D7920666F6F6E7489
:1024D000696E67207475726C696E6764726F6D6582
:1024E000732E0000416E6420686F6F7074696F75A1
:1024F000736C79206472616E676C65206D65000095
:1025000077697468206372696E6B6C792062696E9A
:10251000646C65777572646C65732C004F7220492A
:102520002077696C6C2072656E6420746865650044
:10253000696E2074686520676F6262657277617288
:102540007473000077697468206D7920626C75720D
:10255000676C656372756E6368656F6E2C00000052
:10256000736565206966204920646F6E27742100B9
:102570002DE9FC5F0646624800F0B7FD054660485D
:1025800000F0E9FD044600215D4800F00FFF4FF028
:102590000008A4F1010902F083F800270FFA89F975
:1025A00008E0CDE9009642463BB21146544800F09F
:1025B00045FEBF1DAF42F4DB681E00270FFA80F90D
:1025C00009E038B2CDE9000642464B4611464C4878
:1025D00000F034FEBF1DA742F3DB02F061F80021DA
:1025E000474800F0E3FEA5F1010B4FF00008A4F10D
:1025F000010902F055F80FFA89FA00270FFA8BF952
:1026000008E0CDE900A63BB2424649463C4800F00E
:1026100015FEBF1DAF42F4DB00200746824609E0ED
:1026200038B2CDE90006534642464946344800F0E8
:1026300005FEBF1DA742F3DB02F032F8002130484F
:1026400000F0B4FE4FF0000BA4F10108DA4602F0EE
:1026500027F80FFA88F90027D84608E0CDE900A648
:102660003BB24A464146264800F0E8FDBF1DAF4256
:10267000F4DB681E00270FFA80FA09E038B2CDE9D2
:10268000000653464A4641461D4800F0D7FDBF1D8F
:10269000A742F3DB02F004F80021194800F086FE9F
:1026A000681EA4F101084FF0000B009001F0F8FF44
:1026B000824600980FFA88F900270FFA80F808E0A0
:1026C000CDE900B63BB24A4641460D4800F0B6FDA2
:1026D000BF1DAF42F4DB00252F4609E038B2CDE93B
:1026E00000062B464A464146054800F0A7FDBF1D9F
:1026F000A742F3DB01F0D4FFA0EB0A00BDE8FC9F8A
:102700009C0200202DE9FC4781461E4800F0EDFCAC
:1027100000EBD0704FEA60081A4800F01CFD00EB97
:10272000D07047100021174800F040FE154800F017
:10273000DCFC0446134800F00EFD8442114802DA26
:1027400000F0D3FC01E000F006FD054601F0A8FF13
:10275000064602240FE000BF04EBD4704010391A83
:1027600023B20AB2A8EB0000CDE9003901B2054856
:1027700000F0BAFDA41DAC42EEDB01F091FF801B1E
:10278000BDE8FC879C02002010B5036C446C5A1C09
:1027900002F03F02944201D0C154026410BD10B552
:1027A00004464021FDF7E9FC0020206460642046D7
:1027B00010BD10B5044640690168890604D540681B
:1027C000C1B22069FFF7E0FF94F938106069BDE8F5
:1027D0001040FFF73DBC000070B50446C06B6D4B68
:1027E00092B00E46012808D0022826D0032844D0F3
:1027F000042862D005287CD0A2E09869002540F426
:1028000080409861986900F480401090D86840F446
:102810008040D860D86820F48040D860986940F043
:10282000010098619869052100F0010010900A20CC
:1028300001F05AFF00210B2080E0D869012540F407
:102840000030D861D86900F400301090186940F465
:1028500000301861186920F400301861986940F060
:10286000010098619869052100F001001090032093
:1028700001F03AFF0021042060E0D869022540F40D
:102880008020D861D86900F480201090186940F445
:1028900080201861186920F480201861986940F040
:1028A000010098619869052100F0010010901B203B
:1028B00001F01AFF00211C2040E0D869042540F4F3
:1028C0000020D861D86900F400201090186940F405
:1028D00000201861186920F400201861986940F000
:1028E000010098619869052100F0010010902B20EB
:1028F00000E004E001F0F8FE00212C201EE0D86981
:10290000052540F48010D861D86900F4801010903B
:10291000186940F480101861186920F4801018615B
:10292000986940F0010098619869052100F0010064
:1029300010902D2001F0D8FE0021332001F0D4FEAC
:102940006069CDE9000600200C21CDE90510029058
:1029500004900390079094F938001934FEF7CBF9EE
:1029600094F91F002A460621FEF7DCF994F91F00AE
:10297000FEF7CCF994F91F00FEF7B2F96846FEF7AE
:102980000EFD54F8050CC16841F02001C16012B081
:1029900070BD000000100240426913681B06FCD5A0
:1029A0005160406901680906FCD5012070470000AC
:1029B00030B50025039C45604FF47A758560044D61
:1029C0000560C0E9044180F83820C36330BD0000D1
:1029D000685900082DE9FF5F0546C3F101001C4658
:1029E0000FFA80FAC3EBC430400000B20026029018
:1029F0009046101902B2286889464FF0010B87688B
:102A000028460E9BB847A8EB040002B22868494646
:102A10000E9B87682846B84709EB040001B2286876
:102A200042460E9B87682846B847A9EB040001B2CE
:102A3000286842460E9B876864E000BFBAF1000F29
:102A400008DB641E029824B2801C00B2029050443D
:102A50000FFA80FA0BF102000FFA80FB0AEB0B0071
:102A60000FFA80FA08EB0400761C02B236B209EBCA
:102A7000060001B20092039128680E9B87682846E1
:102A8000B847A9EB060001B201912868009A0E9B95
:102A900087682846B847A8EB040002B2009228686D
:102AA00003990E9B87682846B8472868DDE900210E
:102AB000876828460E9BB84708EB060002B209EB70
:102AC000040001B20092039128680E9B8768284693
:102AD000B847A9EB040001B201912868009A0E9B47
:102AE00087682846B847A8EB060002B2009228681B
:102AF00003990E9B87682846B8472868DDE90021BE
:102B000087680E9B2846B847A64297DBBDE8FF9F23
:102B10002DE9FE4307461C46012000EB440003B2AA
:102B200016460A9D101B02B2009538688846D0F8F8
:102B300010C03846E04700200321CDE900102346AD
:102B4000324602954146384600F05AFABDE8FE8307
:102B500001F00302427651B1012903D0022906D0C7
:102B6000032903D1418981810189C181704701898C
:102B700081814189F9E701B90121017670472DE989
:102B8000FC5F0446DDE90E65DDE90C78CDE90075F2
:102B900000689B469146D0F80CC08A462046E04724
:102BA000CDE90065206843463A46D0F80CC0594646
:102BB0002046E047CDE90095206853463246C56877
:102BC00041462046A847BDE8FC9F2DE9FF4F89B04C
:102BD0001C46DDE91660DDF8609015468846B24275
:102BE00003DD35464446164698464E4505DD4946C2
:102BF000B1460E46014620460C46B54205DD294643
:102C000035460E464146A0460C464D451CD1414630
:102C100042468C4201DA214601E000DD224688422C
:102C200001DA014602E0904200DD02461998009068
:102C3000501A401C03B209982A4600684469099852
:102C4000A0470DB0BDE8F08FA4EB080109B20791D1
:102C5000711B09B20691A0EB080109B20191001B9A
:102C6000A9EB050109B200B2CDE90201A9EB06000A
:102C700000B24FF0000BDA4604904E4501D10596A4
:102C800002E0701E00B205902F4628E00699039AD4
:102C90009BFBF1F19AFBF2F201EB080001B202EBAF
:102CA0000800079B00B20BEB0302019B0FFA82FBAB
:102CB0000AEB03020FFA82FA814202DD0A4601465C
:102CC0001046401A401C03B20998199A00920068F5
:102CD0003A46D0F814C00998E0477F1C3FB20598E7
:102CE0008742D3DD0299B81B48430FFA80FA019955
:102CF000781B484305B223E004989AFBF0F0204487
:102D000001B2039895FBF0F202EB0800029A00B2C0
:102D100052440FFA82FA019A81422A4415B202DD26
:102D20000A4601461046401A401C03B20998199AF7
:102D3000009200683A4646690998B0477F1C3FB246
:102D40004F45D9DD7DE78182C18270471CB50B44B8
:102D5000049C5B1ECDE9002404681BB2E468A04714
:102D60001CBD1CB513445B1E049C1BB2CDE9003492
:102D70000368DC680B46A0471CBD2DE9FF4F83B0FC
:102D80000746DDE911657042CDE900509B4603EB33
:102D9000400003B204989246304401B23868994624
:102DA000884644693846A047109900950AEB01000F
:102DB0000290401E02B238684B464146446938468C
:102DC000A04710990198009501EB400003B20AEB6F
:102DD000060004B2386899462246D0F810C038463A
:102DE0000499E04704984B4600EB0B09A9F1010058
:102DF000009501B238682246D0F810C03846E04746
:102E00000120CDE90005224641463346384600F010
:102E100063F80220CDE90005A9EB0600401E01B2CF
:102E2000224689463346384600F056F80420CDE95C
:102E3000000502984946801B401E04B233462246D4
:102E4000384600F049F80820CDE900052246414601
:102E50003346384600F040F807B0BDE8F08F2DE962
:102E6000FF4F83B09946DDE91147C4F1000803EB39
:102E7000480003B20819DDF840B006B2CDE900B74A
:102E800003988A4631460068059AC5690398A847A1
:102E90000BEB4800401E0FFA80F80121CDE9001825
:102EA00005980297204402B20AEB0900001B401E5D
:102EB00001B215462346039800F0A2F80221CDE99D
:102EC00000182A46029731462346039800F098F8E6
:102ED00007B0BDE8F08F00002DE9F84F8046C3F140
:102EE00001000FFA80F9C3EBC330400000B2DDF8F7
:102EF00028B016460F464FF0010A00251C460090E8
:102F00007AE000BFB9F1000F08DB641E009824B21C
:102F1000801C00B2009048440FFA80F90AF10200C8
:102F20000FFA80FA6D1C09EB0A000FFA80F92DB236
:102F30005FEA4B7015D5301902B2781901B2D8F892
:102F400000000B9BD0F808C04046E047701902B261
:102F5000381901B2D8F800000B9BD0F808C04046E1
:102F6000E0475FEA8B7015D5301B02B2781901B2C9
:102F7000D8F800000B9BD0F808C04046E047701B13
:102F800002B2381901B2D8F800000B9BD0F808C083
:102F90004046E0475FEA0B7015D5701902B2381B46
:102FA00001B2D8F800000B9BD0F808C04046E047BB
:102FB000301902B2781B01B2D8F800000B9BD0F890
:102FC00008C04046E0475FEACB7015D0701B02B2E4
:102FD000381B01B2D8F800000B9BD0F808C040465F
:102FE000E047301B02B2781B01B2D8F800000B9BFF
:102FF000D0F808C04046E047A54283DBBDE8F88F23
:103000002DE9FC5F8246C3F1010006B2C3EBC33079
:103010004000012700B290468946DDF834B0002513
:103020001C4601905DE0002E07DB641E019824B26F
:10303000801C00B20190304406B2BF1C6D1C3FB230
:10304000F01906B20C982DB2C00723D00E9800904C
:103050000BEB4400401C03B2A8EB040002B209EBE6
:10306000050001B2DAF80000D0F810C05046E04781
:103070000E9800900BEB4500401C03B2A8EB050036
:1030800002B209EB040001B2DAF80000D0F810C077
:103090005046E0470C98800723D50E9800900BEB24
:1030A0004400401C03B2A8EB040002B2A9EB0500E7
:1030B00001B2DAF80000D0F810C05046E0470E9890
:1030C00000900BEB4500401C03B2A8EB050002B2D8
:1030D000A9EB040001B2DAF80000D0F810C05046A5
:1030E000E047A5429FDBBDE8FC9FB0F90C007047AC
:1030F0003EB5002504460A2928D00D2924D0A08AEF
:10310000237EE28A8DE80D00B4F910000B460146DB
:10311000B4F91220204600F021F8207E218A00EB2D
:10312000400201EB420109B22182A27E62B1B4F9F0
:103130000C20A0EB800302EB43028A4204DA618A8E
:1031400001EBC0006082258201203EBD608A217EA5
:1031500000EBC100F6E7B0F90E0070472DE9FE4F15
:103160008946B0F90C10DDF830B00E9D90468246CD
:10317000494551DDBAF90E1041454DDD05EB4501DC
:1031800009EB4100012847D408EBC500012843D4CE
:10319000294903EB830008440024029002E0052C37
:1031A0000FD00298075D0026F80718D0012D0AD02D
:1031B00006FB058002B204FB0590CDE9005B01B27D
:1031C0001AE00027EFE708EB060002B209EB040063
:1031D00001B2DAF800005B46D0F808C029E00D988B
:1031E000584510D0012D19D0CDE9005006FB0580BF
:1031F00002B204FB059001B2DAF800002B46D0F8C9
:103200001CC05046E047761C7F0876B2082ECBDB08
:10321000641C64B2062CC2DBBDE8FE8F08EB06001E
:1032200002B209EB040001B2DAF800000D9BD0F8FD
:1032300008C05046E047E6E7CC5200082DE9FF5FA2
:1032400014460E980E461D46021BA3EB060100D540
:103250005242002900DA49428A4207DD31462646B9
:1032600005464FF001080C46184601E04FF00008F3
:10327000AE4205DD31462E460D462146044608463F
:10328000A91B0FFA81F9011B00D549420FFA81FBF6
:1032900009EBD9714F10844201DA012001E04FF0AF
:1032A000FF3082461CE000BF00980F9BB8F1000F72
:1032B0000068D0F808C002D03246214601E022461C
:1032C00031460098E047A7EB0B0007B2002F05DA64
:1032D00004EB0A0004B207EB090007B2761C36B211
:1032E000AE42E1DDBDE8FF9F2DE9F8430446DDE98C
:1032F00008650095006899461746D0F814C08846BE
:103300002046E047B819401E02B2009520684B469F
:103310004146D0F814C02046E04700952068334667
:103320003A46D0F810C041462046E04708EB090075
:10333000401E01B20095206833463A460569204692
:10334000A847BDE8F8832DE9F8439146DDE90886F2
:1033500005460C46CF180AE00096286843464A46C0
:10336000D0F810C021462846E047641C24B2A7428A
:10337000F2DCBDE8F88301824282704710B5002379
:10338000094CC0E900430181428189B2818191B237
:10339000C181437603824382012101764FF6FF7299
:1033A000C2828282817610BD8859000838B50446F1
:1033B00090F823000D4640B102280AD0012808D019
:1033C000032806D0042804D00FE00846FEF7BAFC14
:1033D0000BE0E0890022401E00B20090A089114657
:1033E000401E03B2204600F0E0F829462046BDE822
:1033F00038404FF4963200F037B938B50D460446E0
:10340000FFF7A6FB94F8230088B1012814D0022806
:1034100017D0032829D004283FD1607E28B1012885
:1034200042D0022842D0032842D0442126E0284638
:10343000BDE83840FEF7BABC2846BDE83840FEF784
:103440009FBC607E28B1012809D0022809D003283A
:1034500009D08821BDE838403620FEF747BBE82177
:10346000F8E74821F6E72821F4E7607E28B1012833
:1034700014D0022814D0032814D0C0213620FEF71F
:1034800035FBE0890022401E00B20090A089114661
:10349000401E03B2204600F088F838BDA021EDE7B9
:1034A0000021EBE76021E9E7E021E7E78021E5E79C
:1034B0002021E3E7F8B51C1E069E054636DD002AEE
:1034C00034DBB5F90E00904230DDB5F90C008842CE
:1034D0002CDD0B195B1E1BB2002B27DB002902DA47
:1034E00021440CB20021984204DC401E03B2581A59
:1034F000401C04B22846009200F057F8224631469C
:10350000284600F0B1F895F8230018B1BDE8F8405E
:10351000FEF728B9E8890022401E00B20090A88971
:103520001146401E03B2284600F03FF8F8BDF8B53A
:103530001C1E069E054637DD002935DBB5F90C005B
:10354000884231DDB5F90E3093422DDD1019401E51
:1035500000B2002828DB002A02DA224414B200223A
:10356000834204DC5B1E18B2831A5B1C1CB2009001
:103570000B46284600F019F822463146284600F04E
:1035800073F895F8230018B1BDE8F840FEF7EAB8E3
:10359000E8890022401E00B20090A8891146401E12
:1035A00003B2284600F001F8F8BDF0B41C4690F8CC
:1035B0002300049B15460E4668B1012811D002284D
:1035C00003D0032801D0042811D1224629463046D1
:1035D000F0BCFEF72DBD224629463046F0BCFEF772
:1035E000D7BC224629463046F0BCFEF7B7BCF0BC3B
:1035F000704770B50D46044600F0D4F8A5F51340A9
:10360000253813D0C01E11D0193816D0A5F50340A7
:10361000573819D0A5F51340383817D0A5F5EA402A
:1036200075381AD0FF2084F8230070BD002084F87C
:103630002300BDE87040FEF7E5B8022084F82300BF
:10364000BDE87040FEF700B9032000E0042084F8D4
:103650002300BDE87040FEF793B8012084F82300F2
:10366000BDE87040FEF75AB82DE9F0474B4F4FEADE
:10367000112901F0FF0A396815460C224A6190F8B9
:1036800023000224022821D010B33A4603285268AE
:1036900022D0042820D0424810614C610C61386867
:1036A00004210161D7F8048009F57F06C8F810608D
:1036B000446104610AF57F03C8F810304461046175
:1036C0006D1EC5F38F12D1451ED04FE02C2000E0B7
:1036D0002220FEF70BF8E2E731480A30DCE7102140
:1036E00044610461446104614461046144610461B2
:1036F00044610461446104614461046144610461A2
:10370000491E11F0FF01EBD1521E92B2E7D205F033
:103710003F0103E04461046144610461491EC9B290
:10372000F8D236E010270E618446446104610B61D3
:10373000446104610E61446104610B614461046190
:103740000E61446104610B614461CCF810400E616C
:10375000CCF81440CCF810400B61CCF81440CCF8F5
:1037600010407F1E17F0FF07DDD100E04146521EDA
:1037700092B2D7D205F03F0108E000BFC8F8106050
:1037800044610461C8F8103044610461491EC9B243
:10379000F4D208210161BDE8F08700001400002088
:1037A0002200FF0010B5204C1E48012120601F4858
:1037B0006060084600F098FF0121022000F094FFAD
:1037C0000121032000F090FF0121042000F08CFF74
:1037D00020680821016104210161022101610121A8
:1037E000084600F0C9FE61684FF0333008600121DF
:1037F0001B2000F079FF01211B2000F0BDFE64209A
:1038000000F0A8FE00211B2000F0B6FE642000F0AE
:10381000A1FE01211B2000F0AFFEBDE81040642096
:1038200000F098BE0008014014000020000C014088
:1038300001F0F800000202F0FC0140EAC10040EA99
:10384000D30070472DE9F8431C1EDDE908580646F1
:1038500047DD002D45DDB6F90CC08C4541DDB6F9DC
:103860000E7097423DDD0819401E03B2002B38DB75
:103870005019401E00B2002833DB002902DA21442F
:103880000CB20021002A02DA2A4415B200229C451B
:1038900006DCACF1010C0FFA8CF35C1A641C24B248
:1038A000874204DC7F1E38B2851A6D1C2DB2009051
:1038B0003046FFF77AFE04FB05F241463046FFF73B
:1038C000D3FE96F8230000280BD1F0890022401E79
:1038D00000B20090B0891146401E03B23046FFF797
:1038E00064FEBDE8F8830000F8B51E4614460D00DE
:1038F0005BD4002C59DBB0F90C10A94255DDB0F9AE
:103900000E10A14251DD90F82310A9B101291AD05F
:10391000022903D0032901D0042946D1611C09B230
:103920000091691C0BB22946FFF73FFE3146BDE806
:10393000F8402C20FEF744B91A4621462846BDE837
:10394000F840FEF793B9407E012805D0022805D043
:10395000032805D0002104E0602102E0C02100E03E
:10396000A0211620FEF7C2F8AAB203210220FEF71A
:10397000DDF9A2B207210620FEF7D8F90B49340A77
:1039800004250868F3B245614A68094E16610221B0
:1039900041610161056104F57F04146141610161C8
:1039A00003F57F03136141610161F8BD140000203C
:1039B0002200FF0010B54FF4A072F021FFF7DEFCEB
:1039C0000149016010BD0000BC5900082DE9F04715
:1039D0001500089E1C4681464FF0000801D00120CA
:1039E00000E0002020433F4920F00040081AC00FAB
:1039F00001D03DA114E03D480702B0EB440F00D1D7
:103A00009DB13A463A4B28462146FCF7CFFD06D3F6
:103A10003A46384B28462146FCF7B0FD07D236A17E
:103A20004846BDE8F04700F0CBB834A1F8E70022E3
:103A3000134628462146FCF7A1FD06D22D21484613
:103A400000F085F8804684F0004400202C490746A9
:103A5000DFF8B0A005E000225346FCF7CAFC7F1C4B
:103A6000FFB2B742F7D32A462346FCF7A9FB0F461D
:103A70000546FCF76AFD0446FCF73BFD2A463B463B
:103A8000FCF742FC05460F460A222146484600F054
:103A90008FF800EB0804FEB11BA1484600F055F872
:103AA000044419E00022534628463946FCF72FFC0F
:103AB0000F460546FCF72AFD804601460A22484685
:103AC00000F051F804444046FCF702FD2A463B460C
:103AD000FCF71AFC05460F46761EF6B2E2D22046E7
:103AE000BDE8F0870000F07F6E616E000000E0FF2F
:103AF000FFFFEF41FFFFEFC16F766600696E660062
:103B00000000E03F000024402E00000010B58AB005
:103B100000248DF8204008AB022A00D20A220C466D
:103B2000B1FBF2F102FB1144E4B20A2C01D23034B1
:103B300000E0373403F8014D0029F0D1194600F0B8
:103B40003FF80AB010BD00F03BB800F039B8026889
:103B50001268104708B50299C9B20091FFF736FF05
:103B600008BD00F025B800F002B800F021B870B52B
:103B70000C4605461AB10A2A08D0D2B214E02868C9
:103B8000C9B202682846BDE870401047002C0ADA26
:103B90002D21FFF7DCFF064661420A222846FFF787
:103BA000B5FF304470BD0A22BDE87040FFF7AEBFDC
:103BB00012B1D2B2FFF7AABF0268C9B212681047A9
:103BC00070B505460C000AD00846FCF7E1FA02463B
:103BD0002868214643682846BDE870401847002001
:103BE00070BD00002DE9F04114460E460746002541
:103BF00007E000BF386816F8011B02683846904796
:103C00000544641EF6D22846BDE8F08170B505462D
:103C1000FFF799FF0446284600F037F8204470BDAE
:103C200070B50546FFF791FF0446284600F02DF8D1
:103C3000204470BD38B50546049800902846FFF72B
:103C400089FF0446284600F020F8204438BD70B5AE
:103C50000546FFF788FF0446284600F016F8204482
:103C600070BD70B50546FFF780FF0446284600F09A
:103C70000CF8204470BD70B50546FFF799FF044667
:103C8000284600F002F8204470BD70B505460D21AD
:103C9000FFF75DFF04460A212846FFF758FF20443E
:103CA00070BD10B50446406A04F10C02012100F019
:103CB000CBFA002808D0206A28B9E0682062207A70
:103CC00040F080002072012010BD000010B50446B5
:103CD000406900F095FA002803D0207E014901EBED
:103CE000401010BD9C00002010B50446407A00280A
:103CF0001FD0207A000618D501212046FFF7E6FFE5
:103D0000002816D0617A022901D2E169C161218CB3
:103D10004183216A090C81820649096809B1018B36
:103D20004182207A20F080002072BDE8104000F02F
:103D30004BBA10BD000000202DE9F84F0446407A30
:103D400092460D461746012864D1207A810761D535
:103D5000DFF830B1400774D5E1692069884270D03E
:103D6000204600F09DF8002854D06AE0636A21697B
:103D70001879C1F30808401E00EA512000F0FF093D
:103D800059EA080015D1E16879B16A46184600F091
:103D900009FB00286FD0606A009900F0F3FAC8B1FF
:103DA0002046FFF77EFFA8B303E0206A0028F7D083
:103DB000E060C8F50076BE4200D93E46E168606A20
:103DC00000F0DAFA8144B6F5007F05D0B8F1000FB3
:103DD00014D020E00098EBE7DBF800204A4503D13F
:103DE0004FF0FF31CBF80010274849462A460068BB
:103DF00000F090F870B105F500751DE0E1692069EB
:103E0000884208D300F0E0F920B1CBF8009000F030
:103E100013FA05E031E00121484600F0F1F960B302
:103E20001A4901EB0800811904E000BF15F8012BC5
:103E300000F8012B8842F9D1B81B87B220693044C1
:103E40002061002F92D1E1692069884201D9E061A7
:103E500005E00F48006830B1BAF1000F03D0207AB6
:103E600040F080002072207A000703D52046FFF73B
:103E70003BFF10B15046BDE8F88F01206060002084
:103E8000F9E7000008000020100000209C0000203E
:103E90000000002013B5012201A9FFF74DFF1CBD52
:103EA0002DE9F0410446407A0E4610B1E169B14275
:103EB00002D20020BDE8F08102280DD076B1616AFF
:103EC0002069097C421E0931CA40751ECD409542C9
:103ED00009D340B1AD1A08E0266102E00020E0609D
:103EE00020610120E6E7206AE06004F10C076D1E06
:103EF000F2D33A46E168606A00F054FA0028F6D13D
:103F0000D8E700000021024AC0E900214172704751
:103F1000F059000870B51546044659B1207B0328B6
:103F200000D049020A461821204600F029F818B1AD
:103F300004201AE0122018E02A46FE21204600F054
:103F4000FEF898B14FF41671204600F04DF830B1EC
:103F500000220D21204600F013F828B901E01520B9
:103F600003E0FEF715FA30B114206071204600F02E
:103F700053F8002070BD204600F04EF8012070BDBF
:103F80002DE9F04117460D46064600F06AF8304626
:103F900000F03EF84FF49671304600F025F845F0F9
:103FA0004000FEF7FBF9182427FA04F0C0B2FEF730
:103FB000F5F9083C64B2002CF6DAFF2015B1082DA3
:103FC00002D002E0952000E08720FEF7E7F9002408
:103FD00001E0641CE4B2FEF7DBF9F072010601D5E2
:103FE000FF2CF6D1BDE8F08170B50D4600F07AFBEC
:103FF0001FFA80F4FEF7CCF9FF2807D000F072FB1F
:1040000080B2001BA842F5DB002070BD012070BD0E
:104010000079002100F0B0BA0079012100F0ACBABB
:1040200070B5044600F05EFB85B24FF4967607E06B
:1040300000F058FB80B2401BB04201DD0F2008E0C9
:10404000FEF7A6F9E072FF28F2D0C0B2FE2806D033
:104050000D2060712046FFF7DFFF002070BD0120BA
:1040600070BD70B50446807900280ED040F202255C
:104070002089411C2181A84202D2FEF789F9F7E785
:104080002046FFF7C9FF0020A07170BD2DE9F04167
:104090001E00DDF818801546044640D070194FF414
:1040A0000077B8423ED8A07928B12068884202D172
:1040B0002089A8421BD92160207B032800D0490217
:1040C0000A4611212046FFF75BFF10B10320607103
:1040D00028E02046FFF7A4FF20B300202081012024
:1040E000A07104E0FEF754F92089401C208120894A
:1040F000A842F7D3002505E0FEF74AF908F80500C5
:104100006D1CADB2B542F7D32089304480B2208116
:10411000A17A09B1B84202D32046FFF7A2FF0120DD
:10412000BDE8F0812046FFF777FF0020F8E708B5EB
:104130004FF4007300920022FFF7A8FF08BD2DE99D
:10414000F041054616460846FEF728F900244FF4CC
:104150000077305DFEF722F9641CA4B2BC42F8D3AC
:10416000FF20FEF71BF9FF20FEF718F9FEF710F904
:10417000E87200F01F00052807D01120687128465A
:10418000FFF74AFF0020BDE8F0810120FBE78269CC
:1041900093689B07FCD593681B06F9D4D1608069AE
:1041A0008168C907FCD081680906F9D4C068C0B22B
:1041B000704781610021C183202303620223C0E98B
:1041C000093280F82C10704770B50B4C207888B1FC
:1041D0000A4A6168E068FFF79DFE00280BD0A168DD
:1041E000002531B1054AE068FFF794FE002802D0AF
:1041F000A5602570012070BD040000209C000020F7
:1042000070B50B4C05460E466068A8420BD0FFF710
:10421000DBFF00280BD0074A2946E068FFF787FF3D
:10422000002804D06560207830432070012070BDE4
:10423000040000209C0000200248017841F00101A8
:1042400001707047040000202DE9F84F1568904672
:1042500006468B461DB14FF000096D1C05E0356820
:104260000846012900D000208146F0682C4600F164
:10427000010A0027F068B84202D80020BDE8F88F94
:10428000544501D9022425466A462146304600F0AD
:1042900089F80028F2D0009808B1651C03E0601B83
:1042A000401C584502D0641C7F1CE3E73046214681
:1042B0006FF0704200F020F80028DFD007E02246BF
:1042C000611E304600F018F80028D7D0641EAC42BA
:1042D000F5D8D8F8001029B12A46304600F00CF87D
:1042E0000028CBD0C8F80050B9F1000F01D06D1CE8
:1042F00035600120C2E700002DE9F04117460C4669
:104300000546022903D3E868401CA04202D20020DF
:10431000BDE8F08195F82000E969102821D0E00976
:10432000DFF84C804618D8F80400864205D00021FA
:104330003046FFF765FF0028EAD095F820100D48B9
:10434000102910D004F07F0140F82170FFF774FFAE
:10435000287E012803D9A8688119C8F8081001200F
:10436000D6E7200ADCE7E1B220F81170EEE70000A2
:10437000040000209C0000204269007C891E8140CE
:104380005018704790F82000102804D00448884244
:1043900004D8012070474FF6F870F8E70020704706
:1043A000F8FFFF0F70B50546C0680C46401C164666
:1043B000A04201D2002070BD95F82000E9691028C4
:1043C00018D0E00908440E494968884204D0002109
:1043D000FFF716FF0028EED095F8201009481029A5
:1043E0000AD004F07F0150F8210020F070403060C6
:1043F000012070BD200AE5E7E1B230F81100F6E7D0
:10440000040000209C0000200020FCF718B902E006
:1044100008C8121F08C1002AFAD17047704700204F
:1044200001E001C1121F002AFBD1704738B53148A5
:10443000FEF7B5F92F484830FEF7B1F92D48903016
:10444000FEF7ADF92B48D830FEF7A9F92A48FEF758
:10445000A6F929484830FEF7A2F9264C274D01233A
:104460002522294604F5D8700094FEF7A1FA01230D
:104470002522294604F508700094FEF799FA04F104
:1044800048000090022326221D4900F51270FEF715
:104490008FFA04F19000009003232722194900F5B8
:1044A0001C70FEF785FA04F1D80000900423342232
:1044B000154900F52670FEF77BFA0F48009005239A
:1044C0003522124900F53070FEF772FA104A114990
:1044D00004F58A60FFF76DFE0F4A104904F2AC4004
:1044E000FFF767FE04F5A160BDE838400C4A0D49AE
:1044F000FFF75FBE28030020480400200038014079
:104500000044004000480040004C00400050004083
:1045100025150008003001407915000800380040DA
:10452000CD150008003C00400648002202234271DD
:10453000827182720273036180F830203830FFF795
:10454000E1BC0000380000200148FFF733BA00004A
:104550009C02002010B50446FCF742FD41F6623192
:10456000B0FBF1F0002104E00022521C8242FCD991
:10457000491CA142F8D310BD61B100220649C0EB2D
:10458000C00001EB800351F820005B6812019340EA
:10459000036170470122F1E730480008FCF740FB57
:1045A000FCF739FF01213E2000F09EF84FF4E13185
:1045B0002648FEF711F926A12448FFF727FB28A17A
:1045C0002248FFF7C2FA2A48FEF78FFD81B20A227D
:1045D0001E48FFF7C8FA27A11C48FFF7B6FA24487F
:1045E000FEF7B9FD81B20A221848FFF730FB49F205
:1045F00041311F48FEF7FDFF1FA11448FFF710FBD4
:104600004FF47A75002421461948FEF7F6FE1EA1E4
:104610000E48FFF79AFA0A2221460C48FFF7A1FA42
:104620001CA10A48FFF791FAFDF7BEFE01460A22D7
:104630000648FFF720FB2846FFF78CFF641CE4B216
:10464000042CE0D3FDF71CFDDCE70000D8040020BB
:10465000544654204C434420746573740000000099
:104660005446542073697A65206973200000000065
:104670009C0200207800000054465420626567695F
:104680006E20646F6E652E00726F746174696F6E58
:104690003A2000002C2072756E74696D653A200016
:1046A00038B54FF0E0242069FCF7ACFA6569A169E0
:1046B0006D1C691A00912169C1F3004181B1FCF7B9
:1046C000A1FAA169691A00914FF47A725143B1FBC2
:1046D000F5F100EB4002C2EBC01001EBC00038BDA9
:1046E0000099F1E7FCF78EBA30B54C4AC0EBC00335
:1046F00085B052F8230002EB830293889CB2936842
:10470000474A012B0CD0022B12D0032B18D0042BBC
:104710001ED0052B24D0062B2AD0072B30D037E013
:10472000936943F004039361926902F004022EE05E
:10473000936943F008039361926902F0080226E04E
:10474000936943F010039361926902F010021EE036
:10475000936943F020039361926902F0200216E00E
:10476000936943F040039361926902F040020EE0C6
:10477000936943F080039361926902F0800206E03E
:10478000936943F480739361926902F48072049296
:1047900000220094B9B10125022917D0022403296F
:1047A00017D00323012917D0072917D0042919D0BE
:1047B00005291CD006291ED00C291FD00D2921D077
:1047C0000E2923D025E00192029222E0CDE90125B5
:1047D0001FE0CDE901241CE0019501E011210191C8
:1047E000039316E001AC122184E80E0011E001945D
:1047F000CDE902230DE0CDE901340AE00949CDE914
:10480000011206E00849CDE9011502E00749CDE9AA
:1048100001146946FCF7FAF805B030BD30480008CD
:1048200000100240000031100000211000001110A3
:104830000000000000000000000000000000000078
:10484000000000000000000000000000000801401F
:104850000100000001000000000000000000000056
:1048600000000000000000000008014002000000FD
:1048700001000000010000000000004004000000F2
:1048800000000000000801400400000001000000DA
:1048900002000000000000400800000000000000CE
:1048A00000080140080000000100000003000000B3
:1048B000000000400C000000000000000008014063
:1048C00010000000010000000400000000000000D3
:1048D000000000000000000000080140200000006F
:1048E00001000000050000000000000000000000C2
:1048F000000000000008014040000000010000002E
:10490000060000000004004000000000000000005D
:1049100000080140800000000100000007000000C6
:1049200000040040040000000000000000080140F6
:10493000000100000100000000000000002C014008
:10494000000000000000000000080140000200001C
:104950000100000000000000002C014004000000E5
:1049600000000000000801400004000001000000F9
:1049700000000000002C01400800000000000000C2
:1049800000080140000800000100000000000000D5
:10499000002C01400C000000000000000008014055
:1049A00000100000010000000000000000000000F6
:1049B000000000000000000000080140002000008E
:1049C00001000000000000000000000000000000E6
:1049D000000000000008014000400000010000004D
:1049E00000000000000000000000000000000000C7
:1049F00000080140008000000100000000000000ED
:104A0000000000000000000000000000000C014059
:104A10000100000002000000080000000004004047
:104A20000800000000000000000C0140020000002F
:104A30000200000009000000000400400C0000001B
:104A400000000000000C0140040000000200000013
:104A50000000000000000000000000000000000056
:104A6000000C0140080000000200000000000000EF
:104A7000000000400400000000000000000C0140A5
:104A800010000000020000000000000000040040D0
:104A90000000000000000000000C014020000000A9
:104AA00002000000000000000004004004000000BC
:104AB00000000000000C0140400000000200000067
:104AC000000000000008004000000000000000009E
:104AD000000C014080000000020000000000000007
:104AE000000800400400000000000000000C01402D
:104AF00000010000020000000000000000000000B3
:104B00000000000000000000000C01400002000056
:104B10000200000000000000000000000000000093
:104B200000000000000C0140000400000200000032
:104B3000000000000000004008000000000000002D
:104B4000000C01400008000002000000000000000E
:104B5000000000400C00000000000000000C0140BC
:104B60000010000002000000000000000000000033
:104B70000000000000000000000C014000200000C8
:104B80000200000000000000000000000000000023
:104B900000000000000C0140004000000200000086
:104BA0000000000000000000000000000000000005
:104BB000000C014000800000020000000000000026
:104BC0000000000004000000000000000010014090
:104BD00001000000030000000A00000000000000C7
:104BE0000000000000000000001001400200000072
:104BF000030000000B0000000000000000000000A7
:104C0000000000000010014004000000030000004C
:104C10000C00000000000000000000000000000088
:104C20000010014008000000030000000D0000001B
:104C30000000000000000000000000000010014023
:104C400010000000030000000E0000000000000043
:104C500000000000000000000010014020000000E3
:104C6000030000000E000000000000000000000033
:104C700000000000001001404000000003000000A0
:104C80000000000000000000000000000000000024
:104C90000010014080000000030000000000000040
:104CA00000000000040000000000000000100140AF
:104CB00000010000030000000000000000000000F0
:104CC0000800000000000000001001400002000089
:104CD0000300000000000000000000000C000000C5
:104CE000000000000010014000040000030000006C
:104CF00000000000000000000000000000000000B4
:104D00000010014000080000030000000000000047
:104D10000000000000000000000000000010014042
:104D20000010000003000000000000000000000070
:104D30000000000000000000001001400020000002
:104D40000300000000000000000000000000000060
:104D500000000000001001400040000003000000BF
:104D60000000000000000000000000000000000043
:104D7000001001400080000003000000000000005F
:104D800000000000000000000000000000140140CE
:104D9000010000000400000000000000000000000E
:104DA00000000000000000000014014002000000AC
:104DB00004000000000000000000000000000000EF
:104DC0000000000000140140040000000400000086
:104DD00000000000000000000000000000000000D3
:104DE0000014014008000000040000000000000062
:104DF000000000000000000000000000001401405E
:104E0000100000000400000000000000000000008E
:104E1000000000000000000000140140200000001D
:104E2000040000000000000000000000000000007E
:104E300000000000001401404000000004000000D9
:104E40000000000000000000000000000000000062
:104E50000014014080000000040000000000000079
:104E600000000000000000000000000000140140ED
:104E7000000100000400000000000000000000002D
:104E800000000000000000000014014000020000CB
:104E9000040000000000000000000000000000000E
:104EA00000000000001401400004000004000000A5
:104EB00000000000000000000000000000000000F2
:104EC0000014014000080000040000000000000081
:104ED000000000000000000000000000001401407D
:104EE0000010000004000000000000000008004066
:104EF000000000000000000000140140002000003D
:104F00000400000000000000000800400400000051
:104F100000000000001401400040000004000000F8
:104F20000000000000080040080000000000000031
:104F30000014014000800000040000000000000098
:104F4000000800400C0000000000000000180140B4
:104F5000010000000500000000000000000000004B
:104F600000000000000000000018014002000000E6
:104F7000050000000000000000000000000000002C
:104F800000000000001801400400000005000000BF
:104F90000000000000000000000000000000000011
:104FA000001801400800000005000000000000009B
:104FB0000000000000000000000000000018014098
:104FC00010000000050000000000000000000000CC
:104FD0000000000000000000001801402000000058
:104FE00005000000000000000000000000000000BC
:104FF0000000000000180140400000000500000013
:10500000000000000000000004000000000000009C
:1050100000180140800000000500000000000000B2
:105020000000000000000000000000000018014027
:10503000000100000500000000000000000000006A
:105040000000000000000000001801400002000005
:105050000500000000000000002C014000000000DE
:1050600000000000001801400004000005000000DE
:105070000000000000000000000000000000000030
:1050800000180140000800000500000000000000BA
:10509000002C014004000000000000000018014046
:1050A00000100000050000000000000000000000EB
:1050B0000000000000000000001801400020000077
:1050C0000500000000000000002C01400800000066
:1050D0000000000000180140004000000500000032
:1050E00000000000002C01400C0000000000000047
:1050F00000180140008000000500000000000000D2
:10510000000000000000000000000000001C014042
:105110000100000006000000000000000000000088
:105120000000000000000000001C01400200000020
:105130000600000000000000000000000000000069
:1051400000000000001C01400400000006000000F8
:10515000000000000000000000000000000000004F
:10516000001C0140080000000600000000000000D4
:10517000000000000000000000000000001C0140D2
:105180001000000006000000000000000000000009
:105190000000000000000000001C01402000000092
:1051A00006000000000000000000000000000000F9
:1051B00000000000001C014040000000060000004C
:1051C00000000000000000000000000000000000DF
:1051D000001C0140800000000600000000000000EC
:1051E000000000000000000000000000001C014062
:1051F00000010000060000000000000000000000A8
:105200000000000000000000001C0140000200003F
:105210000600000000000000000000000000000088
:1052200000000000001C0140000400000600000017
:10523000000000000000000000000000000000006E
:10524000001C0140000800000600000000000000F3
:10525000000000000000000000000000001C0140F1
:105260000010000006000000000000000000000028
:105270000000000000000000001C014000200000B1
:105280000600000000000000000000000000000018
:1052900000000000001C014000400000060000006B
:1052A00000000000000000000000000000000000FE
:1052B000001C01400080000006000000000000000B
:1052C00000000000000000000000000000000000DE
:1052D000003E5B4F5B3E3E6B4F6B3E1C3E7C3E1C7C
:1052E000183C7E3C181C577D571C1C5E7F5E1C00C2
:1052F000183C1800FFE7C3E7FF0018241800FFE779
:10530000DBE7FF30483A060E2629792926407F053B
:105310000507407F05253F5A3CE73C5A7F3E1C1C51
:1053200008081C1C3E7F14227F22145F5F005F5F11
:1053300006097F017F006689956A606060606094FD
:10534000A2FFA29408047E040810207E2010080802
:105350002A1C08081C2A08081E101010100C1E0C0D
:105360001E0C30383E3830060E3E0E06000000009F
:105370000000005F00000007000700147F147F1486
:10538000242A7F2A122313086462364956205000CB
:1053900008070300001C2241000041221C002A1CB7
:1053A0007F1C2A08083E08080080703000080808A2
:1053B0000808000060600020100804023E514945C2
:1053C0003E00427F400072494949462141494D33E0
:1053D0001814127F1027454545393C4A4949314147
:1053E000211109073649494936464949291E000015
:1053F000140000004034000000081422411414146A
:105400001414004122140802015909063E415D5955
:105410004E7C1211127C7F494949363E414141225E
:105420007F4141413E7F494949417F090909013E88
:10543000414151737F0808087F00417F41002040AF
:10544000413F017F081422417F404040407F021CC1
:10545000027F7F0408107F3E4141413E7F090909D8
:10546000063E4151215E7F091929462649494932A4
:1054700003017F01033F4040403F1F2040201F3F6A
:105480004038403F631408146303047804036159EF
:10549000494D43007F414141020408102000414131
:1054A000417F0402010204404040404000030708DD
:1054B0000020545478407F284444383844444428D9
:1054C000384444287F385454541800087E09021880
:1054D000A4A49C787F0804047800447D4000204008
:1054E000403D007F1028440000417F40007C04784C
:1054F00004787C080404783844444438FC18242494
:105500001818242418FC7C08040408485454542413
:1055100004043F44243C4040207C1C2040201C3C90
:105520004030403C44281028444C9090907C446487
:10553000544C44000836410000007700000041361A
:10554000080002010204023C2623263C1EA1A161A0
:10555000123A4040207A38545455592155557941D2
:105560002154547841215554784020545579400CA9
:105570001E5272123955555559395454545939558A
:105580005454580000457C410002457D42000145CD
:105590007C40F0292429F0F0282528F07C5455453A
:1055A000002054547C547C0A097F493249494932CD
:1055B0003248484832324A4848303A4141217A3AE2
:1055C00042402078009DA0A07D39444444393D40AC
:1055D00040403D3C24FF2424487E4943662B2FFC59
:1055E0002F2BFF0929F620C0887E09032054547907
:1055F000410000447D413048484A32384040227AD8
:10560000007A0A0A727D0D19317D2629292F282654
:105610002929292630484D4020380808080808085C
:105620000808382F10C8ACBA2F102834FA00007BB5
:10563000000008142A142222142A1408AA00550073
:10564000AAAA55AA55AA000000FF00101010FF00DA
:10565000141414FF001010FF00FF1010F010F014CD
:105660001414FC001414F700FF0000FF00FF1414D2
:10567000F404FC141417101F10101F101F1414141E
:105680001F00101010F0000000001F101010101F5D
:1056900010101010F010000000FF1010101010106B
:1056A000101010FF10000000FF140000FF00FF00AA
:1056B000001F10170000FC04F41414171017141422
:1056C000F404F40000FF00F714141414141414F775
:1056D00000F7141414171410101F101F141414F4CE
:1056E000141010F010F000001F101F0000001F1415
:1056F000000000FC140000F010F01010FF10FF1468
:105700001414FF141010101F00000000F010FFFF11
:10571000FFFFFFF0F0F0F0F0FFFFFF0000000000DF
:10572000FFFF0F0F0F0F0F38444438447C2A2A3EE6
:10573000147E02020606027E027E02635549416320
:105740003844443C04407E201E2006027E0202991A
:10575000A5E7A5991C2A492A1C4C7201724C304AB3
:105760004D4D303048784830BC625A463D3E49493C
:1057700049007E0101017E2A2A2A2A2A44445F44E4
:105780004440514A444040444A51400000FF010314
:10579000E080FF000008086B6B08361236243606DE
:1057A0000F090F060000181800000010100030400C
:1057B000FF0101001F01011E00191D1712003C3CD2
:1057C0003C3C00000000002E89298F2B02E200E4FF
:1057D00001E510E601E710E870F200EA00EB20ECCA
:1057E0003CEDC8E938F1011B1A1A022461255C1846
:1057F0003619011F88FF051F80FF051F90FF051F39
:10580000D4FF05170536092838FF28283C02000375
:1058100000040005EF060007000801093F0100B978
:1058200003FF8357FFFAB30400000606B60125B054
:105830000168CC0105B10600151C1C83AAC00650E6
:1058400050013C1E08B4070240002A2A0D783A0194
:10585000553601C0350100440200021100FF9629AF
:1058600000FF320000000100FF00320001000001D3
:1058700002000007030030100400000008000202CC
:10588000090000000A0000000C0000000D000000EC
:105890000F000000100000001100070012000000BF
:1058A00013000000FF00C80010009016110027022E
:1058B000FF00320012001A00FF003200130000182F
:1058C00029002A00FF0032003000000031000000F3
:1058D00032000000350006023600080837000700D5
:1058E00038000102390000003C0000003D000000CB
:1058F0002000000021000000500000005100EF00D7
:105900005200000053003F01600000A76100030047
:105910006A00000090001000920000009300030055
:105920009500001197000000980000000700330167
:105930000100FF9628003A01551100FF962900202A
:1059400000360148B00140000000000000000001E6
:105950000203040607080900000000010203040016
:10596000000000000000000099290008E53B000845
:105970000000000000000000000000000000000027
:105980000000000000000000F1300008E53B0008C6
:10599000094400083D320008632D00084D2D000821
:1059A000E932000847330008000000000000000052
:1059B000000000000000000000000000F1300008BE
:1059C000E53B0008E93800083D3200082F350008A3
:1059D000B5340008E932000845380008AD33000846
:1059E00000000000000000000000000000000000B7
:1059F000953E0008E53B0008245A000800000020FE
:105A0000380000000E4400085C5A000838000020EE
:105A1000180F00001E44000811EBFFFF2DEBFFFFE5
:105A20000DEAFFFF0000000000000000FFFFFFFF85
:105A30000000000000000000000000000000000066
:105A40000000000000000000000000000024F4003E
:0C5A500001000000100000000000000039
:0400000508000131BD
:00000001FF
